{
	"data": {
		"bytecode": {
			"linkReferences": {},
			"object": "608060405260405180602001604052805f8152505f90816200002291906200029a565b503480156200002f575f80fd5b506200037e565b5f81519050919050565b7f4e487b71000000000000000000000000000000000000000000000000000000005f52604160045260245ffd5b7f4e487b71000000000000000000000000000000000000000000000000000000005f52602260045260245ffd5b5f6002820490506001821680620000b257607f821691505b602082108103620000c857620000c76200006d565b5b50919050565b5f819050815f5260205f209050919050565b5f6020601f8301049050919050565b5f82821b905092915050565b5f600883026200012c7fffffffffffffffffffffffffffffffffffffffffffffffffffffffffffffffff82620000ef565b620001388683620000ef565b95508019841693508086168417925050509392505050565b5f819050919050565b5f819050919050565b5f620001826200017c620001768462000150565b62000159565b62000150565b9050919050565b5f819050919050565b6200019d8362000162565b620001b5620001ac8262000189565b848454620000fb565b825550505050565b5f90565b620001cb620001bd565b620001d881848462000192565b505050565b5b81811015620001ff57620001f35f82620001c1565b600181019050620001de565b5050565b601f8211156200024e576200021881620000ce565b6200022384620000e0565b8101602085101562000233578190505b6200024b6200024285620000e0565b830182620001dd565b50505b505050565b5f82821c905092915050565b5f620002705f198460080262000253565b1980831691505092915050565b5f6200028a83836200025f565b9150826002028217905092915050565b620002a58262000036565b67ffffffffffffffff811115620002c157620002c062000040565b5b620002cd82546200009a565b620002da82828562000203565b5f60209050601f83116001811462000310575f8415620002fb578287015190505b6200030785826200027d565b86555062000376565b601f1984166200032086620000ce565b5f5b82811015620003495784890151825560018201915060208501945060208101905062000322565b8683101562000369578489015162000365601f8916826200025f565b8355505b6001600288020188555050505b505050505050565b610a13806200038c5f395ff3fe608060405234801561000f575f80fd5b506004361061003f575f3560e01c8063467fba0f146100435780635771d6e4146100735780637d000226146100a3575b5f80fd5b61005d60048036038101906100589190610506565b6100d3565b60405161006a91906105f6565b60405180910390f35b61008d60048036038101906100889190610616565b6101b0565b60405161009a91906105f6565b60405180910390f35b6100bd60048036038101906100b89190610616565b6102cf565b6040516100ca91906105f6565b60405180910390f35b6060826040516020016100e5906106b1565b604051602081830303815290604052805190602001208160405160200161010c91906106f5565b604051602081830303815290604052805190602001201461012b575f80fd5b825f9081610139919061090e565b506040518060400160405280601981526020017f546865206d65737361676520686173206265656e2073656e740000000000000081525091507f3b7e5ce22aaed8c7066618e3d648520147681e91cfe1d4df9bcab1b1112dffbb836040516101a191906105f6565b60405180910390a15092915050565b6060816040516020016101c2906106b1565b60405160208183030381529060405280519060200120816040516020016101e991906106f5565b6040516020818303038152906040528051906020012014610208575f80fd5b5f805461021490610738565b80601f016020809104026020016040519081016040528092919081815260200182805461024090610738565b801561028b5780601f106102625761010080835404028352916020019161028b565b820191905f5260205f20905b81548152906001019060200180831161026e57829003601f168201915b505050505091507f85fb361ec5853a14699281c92b496449cbaefc82dc612de987a886b2eac0bff6826040516102c191906105f6565b60405180910390a150919050565b6060816040516020016102e1906106b1565b604051602081830303815290604052805190602001208160405160200161030891906106f5565b6040516020818303038152906040528051906020012014610327575f80fd5b60405180602001604052805f8152505f9081610343919061090e565b506040518060400160405280601c81526020017f546865206d65737361676520686173206265656e2064656c657465640000000081525091507f3b7e5ce22aaed8c7066618e3d648520147681e91cfe1d4df9bcab1b1112dffbb826040516103ab91906105f6565b60405180910390a150919050565b5f604051905090565b5f80fd5b5f80fd5b5f80fd5b5f80fd5b5f601f19601f8301169050919050565b7f4e487b71000000000000000000000000000000000000000000000000000000005f52604160045260245ffd5b610418826103d2565b810181811067ffffffffffffffff82111715610437576104366103e2565b5b80604052505050565b5f6104496103b9565b9050610455828261040f565b919050565b5f67ffffffffffffffff821115610474576104736103e2565b5b61047d826103d2565b9050602081019050919050565b828183375f83830152505050565b5f6104aa6104a58461045a565b610440565b9050828152602081018484840111156104c6576104c56103ce565b5b6104d184828561048a565b509392505050565b5f82601f8301126104ed576104ec6103ca565b5b81356104fd848260208601610498565b91505092915050565b5f806040838503121561051c5761051b6103c2565b5b5f83013567ffffffffffffffff811115610539576105386103c6565b5b610545858286016104d9565b925050602083013567ffffffffffffffff811115610566576105656103c6565b5b610572858286016104d9565b9150509250929050565b5f81519050919050565b5f82825260208201905092915050565b5f5b838110156105b3578082015181840152602081019050610598565b5f8484015250505050565b5f6105c88261057c565b6105d28185610586565b93506105e2818560208601610596565b6105eb816103d2565b840191505092915050565b5f6020820190508181035f83015261060e81846105be565b905092915050565b5f6020828403121561062b5761062a6103c2565b5b5f82013567ffffffffffffffff811115610648576106476103c6565b5b610654848285016104d9565b91505092915050565b5f81905092915050565b7f616c6d65726961000000000000000000000000000000000000000000000000005f82015250565b5f61069b60078361065d565b91506106a682610667565b600782019050919050565b5f6106bb8261068f565b9150819050919050565b5f6106cf8261057c565b6106d9818561065d565b93506106e9818560208601610596565b80840191505092915050565b5f61070082846106c5565b915081905092915050565b7f4e487b71000000000000000000000000000000000000000000000000000000005f52602260045260245ffd5b5f600282049050600182168061074f57607f821691505b6020821081036107625761076161070b565b5b50919050565b5f819050815f5260205f209050919050565b5f6020601f8301049050919050565b5f82821b905092915050565b5f600883026107c47fffffffffffffffffffffffffffffffffffffffffffffffffffffffffffffffff82610789565b6107ce8683610789565b95508019841693508086168417925050509392505050565b5f819050919050565b5f819050919050565b5f61081261080d610808846107e6565b6107ef565b6107e6565b9050919050565b5f819050919050565b61082b836107f8565b61083f61083782610819565b848454610795565b825550505050565b5f90565b610853610847565b61085e818484610822565b505050565b5b81811015610881576108765f8261084b565b600181019050610864565b5050565b601f8211156108c65761089781610768565b6108a08461077a565b810160208510156108af578190505b6108c36108bb8561077a565b830182610863565b50505b505050565b5f82821c905092915050565b5f6108e65f19846008026108cb565b1980831691505092915050565b5f6108fe83836108d7565b9150826002028217905092915050565b6109178261057c565b67ffffffffffffffff8111156109305761092f6103e2565b5b61093a8254610738565b610945828285610885565b5f60209050601f831160018114610976575f8415610964578287015190505b61096e85826108f3565b8655506109d5565b601f19841661098486610768565b5f5b828110156109ab57848901518255600182019150602085019450602081019050610986565b868310156109c857848901516109c4601f8916826108d7565b8355505b6001600288020188555050505b50505050505056fea2646970667358221220f9afc3c36f554f754c75a437451f4fa39d57f4afccea5fee83f52542cee3ec3e64736f6c63430008180033",
			"opcodes": "PUSH1 0x80 PUSH1 0x40 MSTORE PUSH1 0x40 MLOAD DUP1 PUSH1 0x20 ADD PUSH1 0x40 MSTORE DUP1 PUSH0 DUP2 MSTORE POP PUSH0 SWAP1 DUP2 PUSH3 0x22 SWAP2 SWAP1 PUSH3 0x29A JUMP JUMPDEST POP CALLVALUE DUP1 ISZERO PUSH3 0x2F JUMPI PUSH0 DUP1 REVERT JUMPDEST POP PUSH3 0x37E JUMP JUMPDEST PUSH0 DUP2 MLOAD SWAP1 POP SWAP2 SWAP1 POP JUMP JUMPDEST PUSH32 0x4E487B7100000000000000000000000000000000000000000000000000000000 PUSH0 MSTORE PUSH1 0x41 PUSH1 0x4 MSTORE PUSH1 0x24 PUSH0 REVERT JUMPDEST PUSH32 0x4E487B7100000000000000000000000000000000000000000000000000000000 PUSH0 MSTORE PUSH1 0x22 PUSH1 0x4 MSTORE PUSH1 0x24 PUSH0 REVERT JUMPDEST PUSH0 PUSH1 0x2 DUP3 DIV SWAP1 POP PUSH1 0x1 DUP3 AND DUP1 PUSH3 0xB2 JUMPI PUSH1 0x7F DUP3 AND SWAP2 POP JUMPDEST PUSH1 0x20 DUP3 LT DUP2 SUB PUSH3 0xC8 JUMPI PUSH3 0xC7 PUSH3 0x6D JUMP JUMPDEST JUMPDEST POP SWAP2 SWAP1 POP JUMP JUMPDEST PUSH0 DUP2 SWAP1 POP DUP2 PUSH0 MSTORE PUSH1 0x20 PUSH0 KECCAK256 SWAP1 POP SWAP2 SWAP1 POP JUMP JUMPDEST PUSH0 PUSH1 0x20 PUSH1 0x1F DUP4 ADD DIV SWAP1 POP SWAP2 SWAP1 POP JUMP JUMPDEST PUSH0 DUP3 DUP3 SHL SWAP1 POP SWAP3 SWAP2 POP POP JUMP JUMPDEST PUSH0 PUSH1 0x8 DUP4 MUL PUSH3 0x12C PUSH32 0xFFFFFFFFFFFFFFFFFFFFFFFFFFFFFFFFFFFFFFFFFFFFFFFFFFFFFFFFFFFFFFFF DUP3 PUSH3 0xEF JUMP JUMPDEST PUSH3 0x138 DUP7 DUP4 PUSH3 0xEF JUMP JUMPDEST SWAP6 POP DUP1 NOT DUP5 AND SWAP4 POP DUP1 DUP7 AND DUP5 OR SWAP3 POP POP POP SWAP4 SWAP3 POP POP POP JUMP JUMPDEST PUSH0 DUP2 SWAP1 POP SWAP2 SWAP1 POP JUMP JUMPDEST PUSH0 DUP2 SWAP1 POP SWAP2 SWAP1 POP JUMP JUMPDEST PUSH0 PUSH3 0x182 PUSH3 0x17C PUSH3 0x176 DUP5 PUSH3 0x150 JUMP JUMPDEST PUSH3 0x159 JUMP JUMPDEST PUSH3 0x150 JUMP JUMPDEST SWAP1 POP SWAP2 SWAP1 POP JUMP JUMPDEST PUSH0 DUP2 SWAP1 POP SWAP2 SWAP1 POP JUMP JUMPDEST PUSH3 0x19D DUP4 PUSH3 0x162 JUMP JUMPDEST PUSH3 0x1B5 PUSH3 0x1AC DUP3 PUSH3 0x189 JUMP JUMPDEST DUP5 DUP5 SLOAD PUSH3 0xFB JUMP JUMPDEST DUP3 SSTORE POP POP POP POP JUMP JUMPDEST PUSH0 SWAP1 JUMP JUMPDEST PUSH3 0x1CB PUSH3 0x1BD JUMP JUMPDEST PUSH3 0x1D8 DUP2 DUP5 DUP5 PUSH3 0x192 JUMP JUMPDEST POP POP POP JUMP JUMPDEST JUMPDEST DUP2 DUP2 LT ISZERO PUSH3 0x1FF JUMPI PUSH3 0x1F3 PUSH0 DUP3 PUSH3 0x1C1 JUMP JUMPDEST PUSH1 0x1 DUP2 ADD SWAP1 POP PUSH3 0x1DE JUMP JUMPDEST POP POP JUMP JUMPDEST PUSH1 0x1F DUP3 GT ISZERO PUSH3 0x24E JUMPI PUSH3 0x218 DUP2 PUSH3 0xCE JUMP JUMPDEST PUSH3 0x223 DUP5 PUSH3 0xE0 JUMP JUMPDEST DUP2 ADD PUSH1 0x20 DUP6 LT ISZERO PUSH3 0x233 JUMPI DUP2 SWAP1 POP JUMPDEST PUSH3 0x24B PUSH3 0x242 DUP6 PUSH3 0xE0 JUMP JUMPDEST DUP4 ADD DUP3 PUSH3 0x1DD JUMP JUMPDEST POP POP JUMPDEST POP POP POP JUMP JUMPDEST PUSH0 DUP3 DUP3 SHR SWAP1 POP SWAP3 SWAP2 POP POP JUMP JUMPDEST PUSH0 PUSH3 0x270 PUSH0 NOT DUP5 PUSH1 0x8 MUL PUSH3 0x253 JUMP JUMPDEST NOT DUP1 DUP4 AND SWAP2 POP POP SWAP3 SWAP2 POP POP JUMP JUMPDEST PUSH0 PUSH3 0x28A DUP4 DUP4 PUSH3 0x25F JUMP JUMPDEST SWAP2 POP DUP3 PUSH1 0x2 MUL DUP3 OR SWAP1 POP SWAP3 SWAP2 POP POP JUMP JUMPDEST PUSH3 0x2A5 DUP3 PUSH3 0x36 JUMP JUMPDEST PUSH8 0xFFFFFFFFFFFFFFFF DUP2 GT ISZERO PUSH3 0x2C1 JUMPI PUSH3 0x2C0 PUSH3 0x40 JUMP JUMPDEST JUMPDEST PUSH3 0x2CD DUP3 SLOAD PUSH3 0x9A JUMP JUMPDEST PUSH3 0x2DA DUP3 DUP3 DUP6 PUSH3 0x203 JUMP JUMPDEST PUSH0 PUSH1 0x20 SWAP1 POP PUSH1 0x1F DUP4 GT PUSH1 0x1 DUP2 EQ PUSH3 0x310 JUMPI PUSH0 DUP5 ISZERO PUSH3 0x2FB JUMPI DUP3 DUP8 ADD MLOAD SWAP1 POP JUMPDEST PUSH3 0x307 DUP6 DUP3 PUSH3 0x27D JUMP JUMPDEST DUP7 SSTORE POP PUSH3 0x376 JUMP JUMPDEST PUSH1 0x1F NOT DUP5 AND PUSH3 0x320 DUP7 PUSH3 0xCE JUMP JUMPDEST PUSH0 JUMPDEST DUP3 DUP2 LT ISZERO PUSH3 0x349 JUMPI DUP5 DUP10 ADD MLOAD DUP3 SSTORE PUSH1 0x1 DUP3 ADD SWAP2 POP PUSH1 0x20 DUP6 ADD SWAP5 POP PUSH1 0x20 DUP2 ADD SWAP1 POP PUSH3 0x322 JUMP JUMPDEST DUP7 DUP4 LT ISZERO PUSH3 0x369 JUMPI DUP5 DUP10 ADD MLOAD PUSH3 0x365 PUSH1 0x1F DUP10 AND DUP3 PUSH3 0x25F JUMP JUMPDEST DUP4 SSTORE POP JUMPDEST PUSH1 0x1 PUSH1 0x2 DUP9 MUL ADD DUP9 SSTORE POP POP POP JUMPDEST POP POP POP POP POP POP JUMP JUMPDEST PUSH2 0xA13 DUP1 PUSH3 0x38C PUSH0 CODECOPY PUSH0 RETURN INVALID PUSH1 0x80 PUSH1 0x40 MSTORE CALLVALUE DUP1 ISZERO PUSH2 0xF JUMPI PUSH0 DUP1 REVERT JUMPDEST POP PUSH1 0x4 CALLDATASIZE LT PUSH2 0x3F JUMPI PUSH0 CALLDATALOAD PUSH1 0xE0 SHR DUP1 PUSH4 0x467FBA0F EQ PUSH2 0x43 JUMPI DUP1 PUSH4 0x5771D6E4 EQ PUSH2 0x73 JUMPI DUP1 PUSH4 0x7D000226 EQ PUSH2 0xA3 JUMPI JUMPDEST PUSH0 DUP1 REVERT JUMPDEST PUSH2 0x5D PUSH1 0x4 DUP1 CALLDATASIZE SUB DUP2 ADD SWAP1 PUSH2 0x58 SWAP2 SWAP1 PUSH2 0x506 JUMP JUMPDEST PUSH2 0xD3 JUMP JUMPDEST PUSH1 0x40 MLOAD PUSH2 0x6A SWAP2 SWAP1 PUSH2 0x5F6 JUMP JUMPDEST PUSH1 0x40 MLOAD DUP1 SWAP2 SUB SWAP1 RETURN JUMPDEST PUSH2 0x8D PUSH1 0x4 DUP1 CALLDATASIZE SUB DUP2 ADD SWAP1 PUSH2 0x88 SWAP2 SWAP1 PUSH2 0x616 JUMP JUMPDEST PUSH2 0x1B0 JUMP JUMPDEST PUSH1 0x40 MLOAD PUSH2 0x9A SWAP2 SWAP1 PUSH2 0x5F6 JUMP JUMPDEST PUSH1 0x40 MLOAD DUP1 SWAP2 SUB SWAP1 RETURN JUMPDEST PUSH2 0xBD PUSH1 0x4 DUP1 CALLDATASIZE SUB DUP2 ADD SWAP1 PUSH2 0xB8 SWAP2 SWAP1 PUSH2 0x616 JUMP JUMPDEST PUSH2 0x2CF JUMP JUMPDEST PUSH1 0x40 MLOAD PUSH2 0xCA SWAP2 SWAP1 PUSH2 0x5F6 JUMP JUMPDEST PUSH1 0x40 MLOAD DUP1 SWAP2 SUB SWAP1 RETURN JUMPDEST PUSH1 0x60 DUP3 PUSH1 0x40 MLOAD PUSH1 0x20 ADD PUSH2 0xE5 SWAP1 PUSH2 0x6B1 JUMP JUMPDEST PUSH1 0x40 MLOAD PUSH1 0x20 DUP2 DUP4 SUB SUB DUP2 MSTORE SWAP1 PUSH1 0x40 MSTORE DUP1 MLOAD SWAP1 PUSH1 0x20 ADD KECCAK256 DUP2 PUSH1 0x40 MLOAD PUSH1 0x20 ADD PUSH2 0x10C SWAP2 SWAP1 PUSH2 0x6F5 JUMP JUMPDEST PUSH1 0x40 MLOAD PUSH1 0x20 DUP2 DUP4 SUB SUB DUP2 MSTORE SWAP1 PUSH1 0x40 MSTORE DUP1 MLOAD SWAP1 PUSH1 0x20 ADD KECCAK256 EQ PUSH2 0x12B JUMPI PUSH0 DUP1 REVERT JUMPDEST DUP3 PUSH0 SWAP1 DUP2 PUSH2 0x139 SWAP2 SWAP1 PUSH2 0x90E JUMP JUMPDEST POP PUSH1 0x40 MLOAD DUP1 PUSH1 0x40 ADD PUSH1 0x40 MSTORE DUP1 PUSH1 0x19 DUP2 MSTORE PUSH1 0x20 ADD PUSH32 0x546865206D65737361676520686173206265656E2073656E7400000000000000 DUP2 MSTORE POP SWAP2 POP PUSH32 0x3B7E5CE22AAED8C7066618E3D648520147681E91CFE1D4DF9BCAB1B1112DFFBB DUP4 PUSH1 0x40 MLOAD PUSH2 0x1A1 SWAP2 SWAP1 PUSH2 0x5F6 JUMP JUMPDEST PUSH1 0x40 MLOAD DUP1 SWAP2 SUB SWAP1 LOG1 POP SWAP3 SWAP2 POP POP JUMP JUMPDEST PUSH1 0x60 DUP2 PUSH1 0x40 MLOAD PUSH1 0x20 ADD PUSH2 0x1C2 SWAP1 PUSH2 0x6B1 JUMP JUMPDEST PUSH1 0x40 MLOAD PUSH1 0x20 DUP2 DUP4 SUB SUB DUP2 MSTORE SWAP1 PUSH1 0x40 MSTORE DUP1 MLOAD SWAP1 PUSH1 0x20 ADD KECCAK256 DUP2 PUSH1 0x40 MLOAD PUSH1 0x20 ADD PUSH2 0x1E9 SWAP2 SWAP1 PUSH2 0x6F5 JUMP JUMPDEST PUSH1 0x40 MLOAD PUSH1 0x20 DUP2 DUP4 SUB SUB DUP2 MSTORE SWAP1 PUSH1 0x40 MSTORE DUP1 MLOAD SWAP1 PUSH1 0x20 ADD KECCAK256 EQ PUSH2 0x208 JUMPI PUSH0 DUP1 REVERT JUMPDEST PUSH0 DUP1 SLOAD PUSH2 0x214 SWAP1 PUSH2 0x738 JUMP JUMPDEST DUP1 PUSH1 0x1F ADD PUSH1 0x20 DUP1 SWAP2 DIV MUL PUSH1 0x20 ADD PUSH1 0x40 MLOAD SWAP1 DUP2 ADD PUSH1 0x40 MSTORE DUP1 SWAP3 SWAP2 SWAP1 DUP2 DUP2 MSTORE PUSH1 0x20 ADD DUP3 DUP1 SLOAD PUSH2 0x240 SWAP1 PUSH2 0x738 JUMP JUMPDEST DUP1 ISZERO PUSH2 0x28B JUMPI DUP1 PUSH1 0x1F LT PUSH2 0x262 JUMPI PUSH2 0x100 DUP1 DUP4 SLOAD DIV MUL DUP4 MSTORE SWAP2 PUSH1 0x20 ADD SWAP2 PUSH2 0x28B JUMP JUMPDEST DUP3 ADD SWAP2 SWAP1 PUSH0 MSTORE PUSH1 0x20 PUSH0 KECCAK256 SWAP1 JUMPDEST DUP2 SLOAD DUP2 MSTORE SWAP1 PUSH1 0x1 ADD SWAP1 PUSH1 0x20 ADD DUP1 DUP4 GT PUSH2 0x26E JUMPI DUP3 SWAP1 SUB PUSH1 0x1F AND DUP3 ADD SWAP2 JUMPDEST POP POP POP POP POP SWAP2 POP PUSH32 0x85FB361EC5853A14699281C92B496449CBAEFC82DC612DE987A886B2EAC0BFF6 DUP3 PUSH1 0x40 MLOAD PUSH2 0x2C1 SWAP2 SWAP1 PUSH2 0x5F6 JUMP JUMPDEST PUSH1 0x40 MLOAD DUP1 SWAP2 SUB SWAP1 LOG1 POP SWAP2 SWAP1 POP JUMP JUMPDEST PUSH1 0x60 DUP2 PUSH1 0x40 MLOAD PUSH1 0x20 ADD PUSH2 0x2E1 SWAP1 PUSH2 0x6B1 JUMP JUMPDEST PUSH1 0x40 MLOAD PUSH1 0x20 DUP2 DUP4 SUB SUB DUP2 MSTORE SWAP1 PUSH1 0x40 MSTORE DUP1 MLOAD SWAP1 PUSH1 0x20 ADD KECCAK256 DUP2 PUSH1 0x40 MLOAD PUSH1 0x20 ADD PUSH2 0x308 SWAP2 SWAP1 PUSH2 0x6F5 JUMP JUMPDEST PUSH1 0x40 MLOAD PUSH1 0x20 DUP2 DUP4 SUB SUB DUP2 MSTORE SWAP1 PUSH1 0x40 MSTORE DUP1 MLOAD SWAP1 PUSH1 0x20 ADD KECCAK256 EQ PUSH2 0x327 JUMPI PUSH0 DUP1 REVERT JUMPDEST PUSH1 0x40 MLOAD DUP1 PUSH1 0x20 ADD PUSH1 0x40 MSTORE DUP1 PUSH0 DUP2 MSTORE POP PUSH0 SWAP1 DUP2 PUSH2 0x343 SWAP2 SWAP1 PUSH2 0x90E JUMP JUMPDEST POP PUSH1 0x40 MLOAD DUP1 PUSH1 0x40 ADD PUSH1 0x40 MSTORE DUP1 PUSH1 0x1C DUP2 MSTORE PUSH1 0x20 ADD PUSH32 0x546865206D65737361676520686173206265656E2064656C6574656400000000 DUP2 MSTORE POP SWAP2 POP PUSH32 0x3B7E5CE22AAED8C7066618E3D648520147681E91CFE1D4DF9BCAB1B1112DFFBB DUP3 PUSH1 0x40 MLOAD PUSH2 0x3AB SWAP2 SWAP1 PUSH2 0x5F6 JUMP JUMPDEST PUSH1 0x40 MLOAD DUP1 SWAP2 SUB SWAP1 LOG1 POP SWAP2 SWAP1 POP JUMP JUMPDEST PUSH0 PUSH1 0x40 MLOAD SWAP1 POP SWAP1 JUMP JUMPDEST PUSH0 DUP1 REVERT JUMPDEST PUSH0 DUP1 REVERT JUMPDEST PUSH0 DUP1 REVERT JUMPDEST PUSH0 DUP1 REVERT JUMPDEST PUSH0 PUSH1 0x1F NOT PUSH1 0x1F DUP4 ADD AND SWAP1 POP SWAP2 SWAP1 POP JUMP JUMPDEST PUSH32 0x4E487B7100000000000000000000000000000000000000000000000000000000 PUSH0 MSTORE PUSH1 0x41 PUSH1 0x4 MSTORE PUSH1 0x24 PUSH0 REVERT JUMPDEST PUSH2 0x418 DUP3 PUSH2 0x3D2 JUMP JUMPDEST DUP2 ADD DUP2 DUP2 LT PUSH8 0xFFFFFFFFFFFFFFFF DUP3 GT OR ISZERO PUSH2 0x437 JUMPI PUSH2 0x436 PUSH2 0x3E2 JUMP JUMPDEST JUMPDEST DUP1 PUSH1 0x40 MSTORE POP POP POP JUMP JUMPDEST PUSH0 PUSH2 0x449 PUSH2 0x3B9 JUMP JUMPDEST SWAP1 POP PUSH2 0x455 DUP3 DUP3 PUSH2 0x40F JUMP JUMPDEST SWAP2 SWAP1 POP JUMP JUMPDEST PUSH0 PUSH8 0xFFFFFFFFFFFFFFFF DUP3 GT ISZERO PUSH2 0x474 JUMPI PUSH2 0x473 PUSH2 0x3E2 JUMP JUMPDEST JUMPDEST PUSH2 0x47D DUP3 PUSH2 0x3D2 JUMP JUMPDEST SWAP1 POP PUSH1 0x20 DUP2 ADD SWAP1 POP SWAP2 SWAP1 POP JUMP JUMPDEST DUP3 DUP2 DUP4 CALLDATACOPY PUSH0 DUP4 DUP4 ADD MSTORE POP POP POP JUMP JUMPDEST PUSH0 PUSH2 0x4AA PUSH2 0x4A5 DUP5 PUSH2 0x45A JUMP JUMPDEST PUSH2 0x440 JUMP JUMPDEST SWAP1 POP DUP3 DUP2 MSTORE PUSH1 0x20 DUP2 ADD DUP5 DUP5 DUP5 ADD GT ISZERO PUSH2 0x4C6 JUMPI PUSH2 0x4C5 PUSH2 0x3CE JUMP JUMPDEST JUMPDEST PUSH2 0x4D1 DUP5 DUP3 DUP6 PUSH2 0x48A JUMP JUMPDEST POP SWAP4 SWAP3 POP POP POP JUMP JUMPDEST PUSH0 DUP3 PUSH1 0x1F DUP4 ADD SLT PUSH2 0x4ED JUMPI PUSH2 0x4EC PUSH2 0x3CA JUMP JUMPDEST JUMPDEST DUP2 CALLDATALOAD PUSH2 0x4FD DUP5 DUP3 PUSH1 0x20 DUP7 ADD PUSH2 0x498 JUMP JUMPDEST SWAP2 POP POP SWAP3 SWAP2 POP POP JUMP JUMPDEST PUSH0 DUP1 PUSH1 0x40 DUP4 DUP6 SUB SLT ISZERO PUSH2 0x51C JUMPI PUSH2 0x51B PUSH2 0x3C2 JUMP JUMPDEST JUMPDEST PUSH0 DUP4 ADD CALLDATALOAD PUSH8 0xFFFFFFFFFFFFFFFF DUP2 GT ISZERO PUSH2 0x539 JUMPI PUSH2 0x538 PUSH2 0x3C6 JUMP JUMPDEST JUMPDEST PUSH2 0x545 DUP6 DUP3 DUP7 ADD PUSH2 0x4D9 JUMP JUMPDEST SWAP3 POP POP PUSH1 0x20 DUP4 ADD CALLDATALOAD PUSH8 0xFFFFFFFFFFFFFFFF DUP2 GT ISZERO PUSH2 0x566 JUMPI PUSH2 0x565 PUSH2 0x3C6 JUMP JUMPDEST JUMPDEST PUSH2 0x572 DUP6 DUP3 DUP7 ADD PUSH2 0x4D9 JUMP JUMPDEST SWAP2 POP POP SWAP3 POP SWAP3 SWAP1 POP JUMP JUMPDEST PUSH0 DUP2 MLOAD SWAP1 POP SWAP2 SWAP1 POP JUMP JUMPDEST PUSH0 DUP3 DUP3 MSTORE PUSH1 0x20 DUP3 ADD SWAP1 POP SWAP3 SWAP2 POP POP JUMP JUMPDEST PUSH0 JUMPDEST DUP4 DUP2 LT ISZERO PUSH2 0x5B3 JUMPI DUP1 DUP3 ADD MLOAD DUP2 DUP5 ADD MSTORE PUSH1 0x20 DUP2 ADD SWAP1 POP PUSH2 0x598 JUMP JUMPDEST PUSH0 DUP5 DUP5 ADD MSTORE POP POP POP POP JUMP JUMPDEST PUSH0 PUSH2 0x5C8 DUP3 PUSH2 0x57C JUMP JUMPDEST PUSH2 0x5D2 DUP2 DUP6 PUSH2 0x586 JUMP JUMPDEST SWAP4 POP PUSH2 0x5E2 DUP2 DUP6 PUSH1 0x20 DUP7 ADD PUSH2 0x596 JUMP JUMPDEST PUSH2 0x5EB DUP2 PUSH2 0x3D2 JUMP JUMPDEST DUP5 ADD SWAP2 POP POP SWAP3 SWAP2 POP POP JUMP JUMPDEST PUSH0 PUSH1 0x20 DUP3 ADD SWAP1 POP DUP2 DUP2 SUB PUSH0 DUP4 ADD MSTORE PUSH2 0x60E DUP2 DUP5 PUSH2 0x5BE JUMP JUMPDEST SWAP1 POP SWAP3 SWAP2 POP POP JUMP JUMPDEST PUSH0 PUSH1 0x20 DUP3 DUP5 SUB SLT ISZERO PUSH2 0x62B JUMPI PUSH2 0x62A PUSH2 0x3C2 JUMP JUMPDEST JUMPDEST PUSH0 DUP3 ADD CALLDATALOAD PUSH8 0xFFFFFFFFFFFFFFFF DUP2 GT ISZERO PUSH2 0x648 JUMPI PUSH2 0x647 PUSH2 0x3C6 JUMP JUMPDEST JUMPDEST PUSH2 0x654 DUP5 DUP3 DUP6 ADD PUSH2 0x4D9 JUMP JUMPDEST SWAP2 POP POP SWAP3 SWAP2 POP POP JUMP JUMPDEST PUSH0 DUP2 SWAP1 POP SWAP3 SWAP2 POP POP JUMP JUMPDEST PUSH32 0x616C6D6572696100000000000000000000000000000000000000000000000000 PUSH0 DUP3 ADD MSTORE POP JUMP JUMPDEST PUSH0 PUSH2 0x69B PUSH1 0x7 DUP4 PUSH2 0x65D JUMP JUMPDEST SWAP2 POP PUSH2 0x6A6 DUP3 PUSH2 0x667 JUMP JUMPDEST PUSH1 0x7 DUP3 ADD SWAP1 POP SWAP2 SWAP1 POP JUMP JUMPDEST PUSH0 PUSH2 0x6BB DUP3 PUSH2 0x68F JUMP JUMPDEST SWAP2 POP DUP2 SWAP1 POP SWAP2 SWAP1 POP JUMP JUMPDEST PUSH0 PUSH2 0x6CF DUP3 PUSH2 0x57C JUMP JUMPDEST PUSH2 0x6D9 DUP2 DUP6 PUSH2 0x65D JUMP JUMPDEST SWAP4 POP PUSH2 0x6E9 DUP2 DUP6 PUSH1 0x20 DUP7 ADD PUSH2 0x596 JUMP JUMPDEST DUP1 DUP5 ADD SWAP2 POP POP SWAP3 SWAP2 POP POP JUMP JUMPDEST PUSH0 PUSH2 0x700 DUP3 DUP5 PUSH2 0x6C5 JUMP JUMPDEST SWAP2 POP DUP2 SWAP1 POP SWAP3 SWAP2 POP POP JUMP JUMPDEST PUSH32 0x4E487B7100000000000000000000000000000000000000000000000000000000 PUSH0 MSTORE PUSH1 0x22 PUSH1 0x4 MSTORE PUSH1 0x24 PUSH0 REVERT JUMPDEST PUSH0 PUSH1 0x2 DUP3 DIV SWAP1 POP PUSH1 0x1 DUP3 AND DUP1 PUSH2 0x74F JUMPI PUSH1 0x7F DUP3 AND SWAP2 POP JUMPDEST PUSH1 0x20 DUP3 LT DUP2 SUB PUSH2 0x762 JUMPI PUSH2 0x761 PUSH2 0x70B JUMP JUMPDEST JUMPDEST POP SWAP2 SWAP1 POP JUMP JUMPDEST PUSH0 DUP2 SWAP1 POP DUP2 PUSH0 MSTORE PUSH1 0x20 PUSH0 KECCAK256 SWAP1 POP SWAP2 SWAP1 POP JUMP JUMPDEST PUSH0 PUSH1 0x20 PUSH1 0x1F DUP4 ADD DIV SWAP1 POP SWAP2 SWAP1 POP JUMP JUMPDEST PUSH0 DUP3 DUP3 SHL SWAP1 POP SWAP3 SWAP2 POP POP JUMP JUMPDEST PUSH0 PUSH1 0x8 DUP4 MUL PUSH2 0x7C4 PUSH32 0xFFFFFFFFFFFFFFFFFFFFFFFFFFFFFFFFFFFFFFFFFFFFFFFFFFFFFFFFFFFFFFFF DUP3 PUSH2 0x789 JUMP JUMPDEST PUSH2 0x7CE DUP7 DUP4 PUSH2 0x789 JUMP JUMPDEST SWAP6 POP DUP1 NOT DUP5 AND SWAP4 POP DUP1 DUP7 AND DUP5 OR SWAP3 POP POP POP SWAP4 SWAP3 POP POP POP JUMP JUMPDEST PUSH0 DUP2 SWAP1 POP SWAP2 SWAP1 POP JUMP JUMPDEST PUSH0 DUP2 SWAP1 POP SWAP2 SWAP1 POP JUMP JUMPDEST PUSH0 PUSH2 0x812 PUSH2 0x80D PUSH2 0x808 DUP5 PUSH2 0x7E6 JUMP JUMPDEST PUSH2 0x7EF JUMP JUMPDEST PUSH2 0x7E6 JUMP JUMPDEST SWAP1 POP SWAP2 SWAP1 POP JUMP JUMPDEST PUSH0 DUP2 SWAP1 POP SWAP2 SWAP1 POP JUMP JUMPDEST PUSH2 0x82B DUP4 PUSH2 0x7F8 JUMP JUMPDEST PUSH2 0x83F PUSH2 0x837 DUP3 PUSH2 0x819 JUMP JUMPDEST DUP5 DUP5 SLOAD PUSH2 0x795 JUMP JUMPDEST DUP3 SSTORE POP POP POP POP JUMP JUMPDEST PUSH0 SWAP1 JUMP JUMPDEST PUSH2 0x853 PUSH2 0x847 JUMP JUMPDEST PUSH2 0x85E DUP2 DUP5 DUP5 PUSH2 0x822 JUMP JUMPDEST POP POP POP JUMP JUMPDEST JUMPDEST DUP2 DUP2 LT ISZERO PUSH2 0x881 JUMPI PUSH2 0x876 PUSH0 DUP3 PUSH2 0x84B JUMP JUMPDEST PUSH1 0x1 DUP2 ADD SWAP1 POP PUSH2 0x864 JUMP JUMPDEST POP POP JUMP JUMPDEST PUSH1 0x1F DUP3 GT ISZERO PUSH2 0x8C6 JUMPI PUSH2 0x897 DUP2 PUSH2 0x768 JUMP JUMPDEST PUSH2 0x8A0 DUP5 PUSH2 0x77A JUMP JUMPDEST DUP2 ADD PUSH1 0x20 DUP6 LT ISZERO PUSH2 0x8AF JUMPI DUP2 SWAP1 POP JUMPDEST PUSH2 0x8C3 PUSH2 0x8BB DUP6 PUSH2 0x77A JUMP JUMPDEST DUP4 ADD DUP3 PUSH2 0x863 JUMP JUMPDEST POP POP JUMPDEST POP POP POP JUMP JUMPDEST PUSH0 DUP3 DUP3 SHR SWAP1 POP SWAP3 SWAP2 POP POP JUMP JUMPDEST PUSH0 PUSH2 0x8E6 PUSH0 NOT DUP5 PUSH1 0x8 MUL PUSH2 0x8CB JUMP JUMPDEST NOT DUP1 DUP4 AND SWAP2 POP POP SWAP3 SWAP2 POP POP JUMP JUMPDEST PUSH0 PUSH2 0x8FE DUP4 DUP4 PUSH2 0x8D7 JUMP JUMPDEST SWAP2 POP DUP3 PUSH1 0x2 MUL DUP3 OR SWAP1 POP SWAP3 SWAP2 POP POP JUMP JUMPDEST PUSH2 0x917 DUP3 PUSH2 0x57C JUMP JUMPDEST PUSH8 0xFFFFFFFFFFFFFFFF DUP2 GT ISZERO PUSH2 0x930 JUMPI PUSH2 0x92F PUSH2 0x3E2 JUMP JUMPDEST JUMPDEST PUSH2 0x93A DUP3 SLOAD PUSH2 0x738 JUMP JUMPDEST PUSH2 0x945 DUP3 DUP3 DUP6 PUSH2 0x885 JUMP JUMPDEST PUSH0 PUSH1 0x20 SWAP1 POP PUSH1 0x1F DUP4 GT PUSH1 0x1 DUP2 EQ PUSH2 0x976 JUMPI PUSH0 DUP5 ISZERO PUSH2 0x964 JUMPI DUP3 DUP8 ADD MLOAD SWAP1 POP JUMPDEST PUSH2 0x96E DUP6 DUP3 PUSH2 0x8F3 JUMP JUMPDEST DUP7 SSTORE POP PUSH2 0x9D5 JUMP JUMPDEST PUSH1 0x1F NOT DUP5 AND PUSH2 0x984 DUP7 PUSH2 0x768 JUMP JUMPDEST PUSH0 JUMPDEST DUP3 DUP2 LT ISZERO PUSH2 0x9AB JUMPI DUP5 DUP10 ADD MLOAD DUP3 SSTORE PUSH1 0x1 DUP3 ADD SWAP2 POP PUSH1 0x20 DUP6 ADD SWAP5 POP PUSH1 0x20 DUP2 ADD SWAP1 POP PUSH2 0x986 JUMP JUMPDEST DUP7 DUP4 LT ISZERO PUSH2 0x9C8 JUMPI DUP5 DUP10 ADD MLOAD PUSH2 0x9C4 PUSH1 0x1F DUP10 AND DUP3 PUSH2 0x8D7 JUMP JUMPDEST DUP4 SSTORE POP JUMPDEST PUSH1 0x1 PUSH1 0x2 DUP9 MUL ADD DUP9 SSTORE POP POP POP JUMPDEST POP POP POP POP POP POP JUMP INVALID LOG2 PUSH5 0x6970667358 0x22 SLT KECCAK256 0xF9 0xAF 0xC3 0xC3 PUSH16 0x554F754C75A437451F4FA39D57F4AFCC 0xEA PUSH0 0xEE DUP4 CREATE2 0x25 TIMESTAMP 0xCE 0xE3 0xEC RETURNDATACOPY PUSH5 0x736F6C6343 STOP ADDMOD XOR STOP CALLER "
		},
		"gasEstimates": {
			"creation": {
				"codeDepositCost": "515800",
				"executionCost": "infinite",
				"totalCost": "infinite"
			},
			"external": {
				"deleteMessage(string)": "infinite",
				"readMessage(string)": "infinite",
				"sendMessage(string,string)": "infinite"
			}
		},
		"methodIdentifiers": {
			"deleteMessage(string)": "7d000226",
			"readMessage(string)": "5771d6e4",
			"sendMessage(string,string)": "467fba0f"
		}
	},
	"abi": [
		{
			"anonymous": false,
			"inputs": [
				{
					"indexed": false,
					"internalType": "string",
					"name": "message_",
					"type": "string"
				}
			],
			"name": "ReadMessage",
			"type": "event"
		},
		{
			"anonymous": false,
			"inputs": [
				{
					"indexed": false,
					"internalType": "string",
					"name": "message_",
					"type": "string"
				}
			],
			"name": "SendMessage",
			"type": "event"
		},
		{
			"inputs": [
				{
					"internalType": "string",
					"name": "password_",
					"type": "string"
				}
			],
			"name": "deleteMessage",
			"outputs": [
				{
					"internalType": "string",
					"name": "message_",
					"type": "string"
				}
			],
			"stateMutability": "nonpayable",
			"type": "function"
		},
		{
			"inputs": [
				{
					"internalType": "string",
					"name": "password_",
					"type": "string"
				}
			],
			"name": "readMessage",
			"outputs": [
				{
					"internalType": "string",
					"name": "message_",
					"type": "string"
				}
			],
			"stateMutability": "nonpayable",
			"type": "function"
		},
		{
			"inputs": [
				{
					"internalType": "string",
					"name": "password_",
					"type": "string"
				},
				{
					"internalType": "string",
					"name": "message_",
					"type": "string"
				}
			],
			"name": "sendMessage",
			"outputs": [
				{
					"internalType": "string",
					"name": "status_",
					"type": "string"
				}
			],
			"stateMutability": "nonpayable",
			"type": "function"
		}
	]
}